:100000000C9462000C948A000C948A000C948A0070
:100010000C948A000C948A000C948A000C948A0038
:100020000C948A000C948A000C948A000C948A0028
:100030000C948A000C948A000C948A000C948A0018
:100040000C940E080C948A000C94DC070C94B607F0
:100050000C948A000C948A000C948A000C948A00F8
:100060000C948A000C948A000000000024002700F1
:100070002A0000000000250028002B0000000000DE
:1000800023002600290004040404040404040202DA
:100090000202020203030303030301020408102007
:1000A0004080010204081020010204081020000012
:1000B0000008000201000003040700000000000027
:1000C0000000580811241FBECFEFD8E0DEBFCDBF1F
:1000D00026E0ACEBB3E001C01D92A533B207E1F717
:1000E00013E0A0E0B1E0EAEDF9E102C005900D9265
:1000F000AC3BB107D9F710E0C2E6D0E004C02197CD
:10010000FE010E94EA0AC136D107C9F70E94AA0877
:100110000C94EB0C0C94000080916C0590916D0593
:100120008130910581F040F08230910579F003979C
:1001300081F484E090E002C081E090E090936D054E
:1001400080936C05089582E090E0F8CF83E090E022
:10015000F5CF10926D0510926C0508950895AF9239
:10016000BF92CF92DF92EF92FF920F931F93CF93A4
:10017000DF936C017B018B01040F151FEB015E0106
:10018000AE18BF08C017D10759F06991D601ED919B
:10019000FC910190F081E02DC6010995892B79F73A
:1001A000C501DF91CF911F910F91FF90EF90DF90EC
:1001B000CF90BF90AF900895FC01538D448D252FB3
:1001C00030E0842F90E0821B930B541710F0CF96F1
:1001D000089501970895FC01918D828D981761F023
:1001E000A28DAE0FBF2FB11D5D968C91928D9F5F3A
:1001F0009F73928F90E008958FEF9FEF0895FC0119
:10020000918D828D981731F0828DE80FF11D858DCB
:1002100090E008958FEF9FEF0895FC01918D228D5E
:10022000892F90E0805C9F4F821B91098F739927E3
:1002300008958FEC94E00E940D0121E0892B09F4D0
:1002400020E0822F089580E090E0892B29F00E9421
:10025000190181110C9400000895FC01A48DA80FD0
:10026000B92FB11DA35ABF4F2C91848D90E00196F8
:100270008F739927848FA689B7892C93A089B18918
:100280008C91837080648C93938D848D981306C0B9
:100290000288F389E02D80818F7D80830895EF921D
:1002A000FF920F931F93CF93DF93EC0181E0888F30
:1002B0009B8D8C8D98131AC0E889F989808185FF00
:1002C00015C09FB7F894EE89FF896083E889F989A2
:1002D00080818370806480839FBF81E090E0DF91A4
:1002E000CF911F910F91FF90EF900895F62E0B8DF7
:1002F00010E00F5F1F4F0F731127E02E8C8D8E11B2
:100300000CC00FB607FCFACFE889F989808185FF18
:10031000F5CFCE010E942D01F1CFEB8DEC0FFD2F1B
:10032000F11DE35AFF4FF0829FB7F8940B8FEA89D3
:10033000FB8980818062CFCFCF93DF93EC01888DE2
:100340008823B9F0AA89BB89E889F9898C9185FD50
:1003500003C0808186FD0DC00FB607FCF7CF8C91DE
:1003600085FFF2CF808185FFEDCFCE010E942D0168
:10037000E9CFDF91CF910895833081F028F4813067
:1003800099F08230A9F008958730A9F08830C9F03B
:100390008430B1F4809180008F7D03C08091800013
:1003A0008F7780938000089584B58F7784BD0895FA
:1003B00084B58F7DFBCF8091B0008F778093B000A4
:1003C00008958091B0008F7DF9CF1F93CF93DF9375
:1003D000282F30E0F901E255FF4F8491F901E656EC
:1003E000FF4FD491F901EA57FF4FC491CC23A9F0F4
:1003F000162F81110E94BC01EC2FF0E0EE0FFF1FC1
:10040000EE58FF4FA591B4918FB7F894EC9111116C
:1004100008C0D095DE23DC938FBFDF91CF911F9171
:100420000895DE2BF8CFCF93DF9390E0FC01E656E2
:10043000FF4F24918A579F4FFC0184918823D1F06C
:1004400090E0880F991FFC01E859FF4FA591B491E6
:10045000FC01EE58FF4FC591D49161110EC09FB7BA
:10046000F8948C91E22FE0958E238C932881E223DF
:10047000E8839FBFDF91CF9108958FB7F894EC91F7
:10048000E22BEC938FBFF6CF2FB7F89460918B04DB
:1004900070918C0480918D0490918E042FBF0895EB
:1004A0000F931F930E9444026093D7047093D80463
:1004B0008093D9049093DA048FEC94E00E94EB00CF
:1004C00097FF1DC00E9444020091D7041091D804E8
:1004D0002091D9043091DA04601B710B820B930BCD
:1004E0000091D3041091D4042091D5043091D60406
:1004F0006017710782079307F8F28FEF9FEF1F9144
:100500000F910895FC0101900020E9F73197AF01A8
:10051000481B590BBC018FEC94E00C94AF00CF93B7
:10052000DF93D0E0C0E0009719F00E948202EC0156
:1005300088E191E00E9482028C0F9D1FDF91CF9194
:1005400008958BE191E00E948F028091780590914F
:100550007905A0917A05B0917B05181619061A063F
:100560001B0694F10E94440260936E0570936F0520
:100570008093700590937105605D7A488F4F9F4F0F
:10058000609372057093730580937405909375055D
:1005900061E086E00E94E50161E085E00E94E501FE
:1005A00081E08093760580917D0590917E05A091F4
:1005B0007F05B09180058093780590937905A0938D
:1005C0007A05B0937B05089581E591E00C948F0244
:1005D0000C94A10260E086E00E94E501809176051E
:1005E0008823A1F083E791E00E948F0280917D052E
:1005F00090917E05A0917F05B0918005809378054C
:1006000090937905A0937A05B0937B0510927605B7
:1006100008958EE991E00E948F0261E085E00E94DA
:10062000E50181E080937705089585EB91E00E94D4
:100630008F0260E085E00E94E50110927705089541
:10064000EF92FF920F931F93CF93DF93EC018B01F7
:10065000BC01655E7F4F8FE894E00E94DB0C892B24
:1006600089F5BE01665D7F4F89E994E00E94DB0C4D
:10067000892B41F581E090E0988F8F8B81E090E0AD
:10068000A0E0B0E08093CB049093CC04A093CD0481
:10069000B093CE048BEC91E00E948F028F89988DED
:1006A000009709F040C00E9444026093CB0470930D
:1006B000CC048093CD049093CE0481E090E0988F99
:1006C0008F8B2AC0298D3A8D3327F901E255FF4FD0
:1006D0008491F901E656FF4FE490F901EA57FF4F84
:1006E000F490FF20D9F281110E94BC01EF2DF0E0BF
:1006F000EE0FFF1FE458FF4FA591B491EC91EE224D
:1007000009F4CCCF188E1F8A1092CB041092CC041F
:100710001092CD041092CE04DF91CF911F910F91D2
:10072000FF90EF9008950197B9F70E944402AB0142
:10073000BC018091CB049091CC04A091CD04B091E8
:10074000CE044996A11DB11D84179507A607B707CA
:100750001CF782E090E0988F8F8BF801DF91CF91AA
:100760001F910F91FF90EF900994FC01808191817E
:10077000009711F00C948C0B08950F931F93CF9357
:10078000DF93EC0188819981009759F02A813B81A0
:100790002617370730F081E0DF91CF911F910F913D
:1007A00008958B016F5F7F4F0E94150C009759F0E1
:1007B000998388831B830A832C813D81232B59F7DE
:1007C000FC011082E8CF80E0E7CFEF92FF920F9319
:1007D0001F93CF93DF93EC017B018A01BA010E9442
:1007E000BD0328813981811114C02115310519F00B
:1007F000C9010E948C0B198218821D821C821B82E7
:100800001A82CE01DF91CF911F910F91FF90EF904F
:1008100008951D830C83B701C9010E94E40CF1CF38
:10082000CF92DF92EF92FF920F931F93CF93DF93BC
:10083000CDB7DEB7A1970FB6F894DEBF0FBECDBF20
:10084000409178055091790560917A0570917B050A
:1008500014161506160617060CF0A5C080917D0526
:1008600090917E05A0917F05B09180058417950732
:10087000A607B70744F48093780590937905A09371
:100880007A05B0937B056091780570917905809128
:100890007A0590917B0561507109810991096093F6
:1008A00078057093790580937A0590937B0561159F
:1008B00071058105910509F457C010927C052AE065
:1008C00030E040E050E00E94CB0A672B682B692B98
:1008D000E1F58FEE91E00E948202C0907805D09001
:1008E0007905E0907A05F0907B05F7FE41C06DE256
:1008F0008FEC94E00E944F0122273327A9012C1985
:100900003D094E095F0919A28E010F5D1F4F9AE044
:10091000C92ED12CE12CF12CCA01B901A7019601F5
:100920000E94A90A605DF80162938F0121153105CB
:100930004105510589F70115110519F0C8010E94FB
:10094000820288E191E00E948202A1960FB6F8949B
:10095000DEBF0FBECDBFDF91CF911F910F91FF90F2
:10096000EF90DF90CF90089521E020937C05A7CFF2
:10097000A701960119A28E010F5D1F4F8AE0C82EB4
:10098000D12CE12CF12CCA01B901A70196010E94DA
:10099000A90A605DF80162938F01211531054105B7
:1009A000510589F7C8CF80917C05882371F280E2D8
:1009B00092E00E948F0210927C05C7CFBF92CF9227
:1009C000DF92EF92FF920F931F93CF93DF93CDB7F8
:1009D000DEB7C057D1090FB6F894DEBF0FBECDBF4A
:1009E00080917E0481112FC010924D0410924E040C
:1009F00010924F0410925004109251048CE390E036
:100A0000A0E0B0E08093520490935304A093540468
:100A1000B093550410925B0410925A0482E090E067
:100A200090935D0480935C046CE572E08EE594E045
:100A30000E94E40C65EE72E08DE694E00E94E40C06
:100A400081E080937E0480913B0481112FC010923D
:100A50000A0410920B0410920C0410920D041092D0
:100A60000E048CE390E0A0E0B0E080930F0490933C
:100A70001004A0931104B093120410921804109261
:100A8000170483E090E090931A04809319046CE5B6
:100A900072E08BE194E00E94E40C6AEF72E08AE27B
:100AA00094E00E94E40C81E080933B048091F80381
:100AB00081112FC01092C7031092C8031092C9036E
:100AC0001092CA031092CB038CE390E0A0E0B0E058
:100AD0008093CC039093CD03A093CE03B093CF0328
:100AE0001092D5031092D40384E090E09093D70342
:100AF0008093D6036CE572E088ED93E00E94E40CED
:100B00006EE073E087EE93E00E94E40C81E0809356
:100B1000F80380916C0590916D058230910509F480
:100B20008CC048F4009709F46AC0019709F480C0AA
:100B30000E948C006AC08330910509F483C0049739
:100B4000B9F7AD961FAE1EAEAD97AF961FAE1EAEF7
:100B5000AF97E1961FAE1EAEE19750E040E06AE12C
:100B600071E0CE0185599F4F0E94E50310928F04DA
:100B7000109299041092A3041092AD041092B7043D
:100B80001092C1048FEC94E00E940D01892B09F4AE
:100B900081C11A8219821C821B821E821D8250E032
:100BA00040E06AE171E0CE0101960E94E5030E94F7
:100BB000500297FD9DC08A30910509F499C0A69610
:100BC0008FAFA697A7961FAEA797ED80FE808FEFF9
:100BD000E81AF80AB701CE0101960E94BD038823E6
:100BE00031F329813A818D819E81BE016B597F4FFE
:100BF000820F931F0E94E40CFE82ED82D8CF65E144
:100C000073E083E494E00E9420030E948C00C059AA
:100C1000DF4F0FB6F894DEBF0FBECDBFDF91CF918F
:100C20001F910F91FF90EF90DF90CF90BF900895AC
:100C300069E073E080E094E0E6CF68EE72E08DEB6F
:100C400093E0E1CF0E94440260936E0570936F05BC
:100C50008093700590937105009172051091730552
:100C60002091740530917505061717072807390775
:100C700014F40E94EA0263E672E08FE894E00E94B6
:100C8000DB0C892BD9F466E673E089E994E00E94D5
:100C9000DB0C892B19F40E94A102B7CF64E673E044
:100CA00089E994E00E94DB0C892B19F40E94EA0286
:100CB000ACCF88E692E00E948F02A7CF6AE772E08D
:100CC0008FE894E00E94DB0C892B09F09ECF89E924
:100CD00094E00E94200A092E000CAA0BBB0B809303
:100CE0007D0590937E05A0937F05B09380058DCF01
:100CF000AD968EAD9FADAD97009709F493C0698115
:100D00007A816115710509F48BC0AF964EAD5FAD68
:100D1000AF972D813E814217530708F481C00E948E
:100D2000E40C8D819E81E1969FAF8EAFE1971E828C
:100D30001D82CE0101960E94B503A7961FAE1EAE7E
:100D4000A797A9961FAE1EAEA997AB961FAE1EAE73
:100D5000AB97AD966EAD7FADAD976115710549F05E
:100D6000E1964EAD5FADE197CE018B599F4F0E944A
:100D7000E503AB968EAD9FADAB978436910508F039
:100D80006EC0A7966EAD7FADA797CE0101960E946B
:100D9000E40C8AE080938F04809399048093A304E9
:100DA0008093AD048093B7048093C1048FE8E82E4C
:100DB00084E0F82E10E000E09AE0B92E69EC71E0D2
:100DC000CE0101960115110511F090E080E00E941E
:100DD0003E0A6C01009709F442C0FC01019000201A
:100DE000E9F73197E81BF90BE436F10590F5BC0102
:100DF000C7010E94E40CF60101900020E9F7319749
:100E0000EC19FD09EE0DFF1DB1820F5F1F4F8AE047
:100E1000E80EF11C0630110589F68BEA92E01BC042
:100E20000E948C0B89819A81AD969FAF8EAFAD9752
:100E30008B819C81AF969FAF8EAFAF978D819E8146
:100E4000E1969FAF8EAFE1971A8219821C821B82B6
:100E50006ECF80E892E00E948F0210E000E0CE01A9
:100E60008B599F4F0E94B503012BA1F06CE572E0F6
:100E70008FE894E00E94DB0C892BB1F565EE72E0FF
:100E800089E994E00E94DB0C892BA9F486ED92E0BD
:100E90000E948F02CE0185599F4F0E94B503809119
:100EA000BC0381115CC061E08DE00E94E50181E03E
:100EB0008093BC03AACE6AEF72E089E994E00E94B5
:100EC000DB0C892B19F48BEE92E0E2CF6EE073E03D
:100ED00089E994E00E94DB0C892B19F48FEF92E0F2
:100EE000D7CF83E193E0D4CF6AE772E08FE894E054
:100EF0000E94DB0C892B39F487E293E00E94820286
:100F000089E994E0C5CF66E373E08FE894E00E943E
:100F1000DB0C892B79F48BE393E00E948F028CE445
:100F200093E00E948F028FE693E00E948F0280E997
:100F300093E0AECF87EA93E00E948202E1964EAD45
:100F40005FADE197AD966EAD7FADAD978FEC94E060
:100F50000E94AF0088E191E00E9482029BCF60E096
:100F60008DE00E94E5011092BC034FCE1F920F92BC
:100F70000FB60F9211242F933F934F935F936F936C
:100F80007F938F939F93AF93BF93EF93FF938FECD8
:100F900094E00E942D01FF91EF91BF91AF919F913D
:100FA0008F917F916F915F914F913F912F910F9012
:100FB0000FBE0F901F9018951F920F920FB60F92B1
:100FC00011242F938F939F93EF93FF93E091DF046E
:100FD000F091E0048081E091E504F091E60482FD67
:100FE0001BC090818091E8048F5F8F732091E9048A
:100FF000821741F0E091E804F0E0E153FB4F958F58
:101000008093E804FF91EF919F918F912F910F9022
:101010000FBE0F901F9018958081F4CF1F920F92F2
:101020000FB60F9211242F933F938F939F93AF93FB
:10103000BF9380918B0490918C04A0918D04B0910A
:101040008E0430918A0423E0230F2D3758F5019642
:10105000A11DB11D20938A0480938B0490938C046E
:10106000A0938D04B0938E048091860490918704A0
:10107000A0918804B09189040196A11DB11D8093AF
:10108000860490938704A0938804B0938904BF9149
:10109000AF919F918F913F912F910F900FBE0F9025
:1010A0001F90189526E8230F0296A11DB11DD2CFDF
:1010B000EFECF4E01382128288EE93E0A0E0B0E05F
:1010C00084839583A683B7838AE091E091838083AC
:1010D00085EC90E09587848784EC90E097878687FD
:1010E00080EC90E0918B808B81EC90E0938B828BF5
:1010F00082EC90E0958B848B86EC90E0978B868BCE
:10110000118E128E138E148EE5E8F5E01082118A8E
:1011100012A213AA1092C9051092DA051092EB05DB
:101120001092FC0510920D0610921E06EEE6F5E0F8
:10113000128613861486158616868CE390E0A0E04E
:10114000B0E08787908BA18BB28B10926D051092C7
:101150006C050895789484B5826084BD84B58160FF
:1011600084BD85B5826085BD85B5816085BD809172
:101170006E00816080936E001092810080918100EA
:1011800082608093810080918100816080938100E2
:10119000809180008160809380008091B1008460A4
:1011A0008093B1008091B00081608093B000809105
:1011B0007A00846080937A0080917A0082608093C4
:1011C0007A0080917A00816080937A0080917A0021
:1011D000806880937A001092C100E091DF04F09162
:1011E000E00482E08083E091DB04F091DC04108273
:1011F000E091DD04F091DE048FEC80831092E7042F
:10120000E091E304F091E40486E08083E091E1045E
:10121000F091E204808180618083E091E104F091AB
:10122000E204808188608083E091E104F091E2042F
:10123000808180688083E091E104F091E204808104
:101240008F7D808360E082E00E94130260E083E093
:101250000E94130260E084E00E94130261E085E0D6
:101260000E94130261E086E00E94130261E087E0C1
:101270000E94130260E088E00E94130260E089E0AF
:101280000E94130260E08AE00E94130261E08BE09A
:101290000E94130261E08CE00E94130261E08DE085
:1012A0000E94130260E085E00E94E50160E086E0B4
:1012B0000E94E50160E08DE00E94E501E5E8F5E0CF
:1012C00090E080E02081222309F474C00196719699
:1012D0008A309105B9F7E5E8F5E090E080E02081FB
:1012E000222309F48AC0019671968A309105B9F7D4
:1012F0000E94A1028EE991E00E948F0261E085E0E8
:101300000E94E50181E0809377050FE216E080E01E
:10131000E82E80E0F82EC5E8D5E08881882379F1B1
:101320000E9444024B015C018B859C85AD85BE8586
:10133000B501A401481B590B6A0B7B0B89819A816B
:10134000AB81BC81481759076A077B0770F0888119
:10135000813019F1823029F18B869C86AD86BE865C
:101360008F8598890196988B8F878D819E8197FDB7
:1013700006C02F853889281739070CF01882619626
:101380000C171D0751F6E114F10429F20E9419010E
:10139000882309F20E940000BECFE985FA850995ED
:1013A000DBCF61E08885811160E068878F810E94D2
:1013B000E501D2CF21E1289FE001299FD00D112422
:1013C000CB57DA4F81E0888384E690E0A0E0B0E07C
:1013D00089839A83AB83BC838FEF9FEF9E838D833A
:1013E0008EED94E09A8789870E9444026B877C8700
:1013F0008D879E87188A1F866ECF21E1289FE00186
:10140000299FD00D1124CB57DA4F81E0888388EED5
:1014100093E0A0E0B0E089839A83AB83BC838FEF35
:101420009FEF9E838D8380E194E09A8789870E9455
:1014300044026B877C878D879E87188A1F8658CFCA
:10144000FC0188279927E89421912032E9F329307B
:1014500010F02E30C8F32B3241F02D3239F468945D
:1014600004C00E946A0A820F911D219120532A30E4
:10147000C0F31EF4909581959F4F08954FE256E07A
:101480000E94430A0895FA01A191B081009719F4CE
:101490001097E1F0CD01DC01CD010D90002011F499
:1014A000C00113C0FB012191222319F02015D9F7A7
:1014B000F3CFFB012191201519F41E92119606C05D
:1014C0002223C1F70D900020A1F7D001FA01A193CA
:1014D000B08308957AE0979F902D879F802D910D7E
:1014E000112408952F923F924F925F926F927F92B4
:1014F0008F929F92AF92BF92CF92DF92EF92FF9224
:101500000F931F93CF93DF93CDB7DEB7CA1BDB0BCF
:101510000FB6F894DEBF0FBECDBF09942A88398874
:1015200048885F846E847D848C849B84AA84B9847B
:10153000C884DF80EE80FD800C811B81AA81B98187
:10154000CE0FD11D0FB6F894DEBF0FBECDBFED019B
:101550000895A1E21A2EAA1BBB1BFD010DC0AA1FF4
:10156000BB1FEE1FFF1FA217B307E407F50720F00C
:10157000A21BB30BE40BF50B661F771F881F991F87
:101580001A9469F760957095809590959B01AC01D0
:10159000BD01CF010895052E97FB1EF400940E9413
:1015A000E20A57FD07D00E94A90A07FC03D04EF4B7
:1015B0000C94E20A50954095309521953F4F4F4F3E
:1015C0005F4F089590958095709561957F4F8F4FEF
:1015D0009F4F0895EE0FFF1F0590F491E02D0994A1
:1015E0000F931F93CF93DF938230910510F482E025
:1015F00090E0E0913306F091340630E020E0B0E076
:10160000A0E0309799F42115310509F44AC0281B50
:10161000390B24303105D8F58A819B81611571051C
:1016200089F1FB0193838283FE0111C040815181C6
:101630000281138148175907E0F04817590799F4B8
:10164000109761F012960C93129713961C93329692
:10165000CF01DF91CF911F910F9108950093330631
:1016600010933406F4CF2115310551F0421753077A
:1016700038F0A901DB019A01BD01DF01F801C1CFFA
:10168000EF01F9CF9093340680933306CDCFFE015E
:10169000E20FF31F819391932250310939832883FC
:1016A000D7CF2091310630913206232B41F420917F
:1016B00002013091030130933206209331062091CC
:1016C0000001309101012115310541F42DB73EB7DC
:1016D0004091040150910501241B350BE091310626
:1016E000F0913206E217F307A0F42E1B3F0B2817E8
:1016F000390778F0AC014E5F5F4F2417350748F08B
:101700004E0F5F1F509332064093310681939193A1
:101710009FCFF0E0E0E09CCFCF93DF930097E9F01C
:10172000FC01329713821282A0913306B0913406E5
:10173000ED0130E020E01097A1F420813181820F8B
:10174000931F20913106309132062817390709F08E
:1017500061C0F0933206E0933106DF91CF91089596
:10176000EA01CE17DF07E8F54A815B819E0141154A
:101770005105B1F7E901FB83EA8349915991C40FFF
:10178000D51FEC17FD0761F4808191810296840FCB
:10179000951FE90199838883828193819B838A8342
:1017A000F0E0E0E012968D919C9113970097B9F5C7
:1017B0002D913C911197CD010296820F931F20919C
:1017C0003106309132062817390739F6309751F52E
:1017D0001092340610923306B0933206A09331066D
:1017E000BCCFD383C28340815181840F951FC8171A
:1017F000D90761F44E5F5F4F88819981480F591F67
:10180000518340838A819B81938382832115310593
:1018100009F0B0CFF0933406E09333069ECFFD017C
:10182000DC01C0CF13821282D7CFB0E0A0E0EBE1A1
:10183000FCE00C94740A8C01009751F4CB010E94D7
:10184000F00A8C01C801CDB7DEB7E0E10C94900A34
:10185000FC01E60FF71F9C0122503109E217F30744
:1018600008F49DC0D901CD91DC911197C617D70717
:1018700098F0C530D10530F3CE010497861797074D
:1018800008F3C61BD70B2297C193D1936D937C931A
:10189000CF010E948C0BD6CF5B01AC1ABD0A4C0164
:1018A0008C0E9D1EA0913306B0913406512C412C14
:1018B000F12CE12C109731F5809131069091320690
:1018C0008815990509F05CC04616570608F058C0FF
:1018D0008091000190910101009741F48DB79EB76E
:1018E0004091040150910501841B950BE817F907FD
:1018F00008F055C0F0933206E0933106F901718388
:101900006083A0CF8D919C91119712966C90129745
:1019100013967C901397A815B90559F56C0142E010
:10192000C40ED11CCA14DB0420F1AC014A195B09B6
:10193000DA011296159780F0628273825183408398
:10194000D9016D937C93E114F10471F0D7011396E2
:10195000FC93EE93129776CF22968C0F9D1FF90180
:1019600091838083F301EFCFF0933406E093330645
:1019700069CF4816590608F42C017D01D3019ACF8E
:10198000CB010E94F00A7C01009749F0AE01B8013A
:101990000E94D20CC8010E948C0B870153CF10E02B
:1019A00000E050CFFB01DC0102C001900D924150DC
:1019B0005040D8F70895FB01DC018D91019080190A
:1019C0000110D9F3990B0895FB01DC0101900D92F0
:0A19D0000020E1F70895F894FFCF1E
:1019DA00000035068000000000004F01AF00DC0067
:1019EA009C010D01EB00FF000D0A0041637469764A
:1019FA006174654D61696E4D61676E657428292051
:101A0A002D2D20537461727420427574746F6E2088
:101A1A00686173206265656E2070726573736564B0
:101A2A000044757479204379636C6520446F776E3E
:101A3A0020436F756E7420696E2070726F677265CD
:101A4A00737300446561637469766174654D616995
:101A5A006E4D61676E65742829202D2D20506F7791
:101A6A006572696E6720446F776E2E2E2E0052695A
:101A7A006768744D61676E657441637469766174F1
:101A8A0065282920004C6566744D61676E6574414E
:101A9A0063746976617465282920005365726961E7
:101AAA006C20434D4420746F2073657420737769EA
:101ABA007463686573207265636569766564005549
:101ACA007064617465447574794379636C65446FB5
:101ADA00776E436F756E742829202D205365636FC6
:101AEA006E64732052656D61696E696E673A200093
:101AFA00557064617465447574794379636C65449F
:101B0A006F776E436F756E742829202D2052656198
:101B1A006374697674696F6E20446F776E20436FC1
:101B2A00756E7420526561636865640073776974C1
:101B3A006368006D61696E00434D443A206D6169C6
:101B4A006E202D204552524F52006379636C650016
:101B5A004552524F523A204D6178204C656E677457
:101B6A0068206F6620612053696E676C6520434D5B
:101B7A0044204578636565646564004572726F72D6
:101B8A003A204D6178204E756D626572206F66202D
:101B9A00436D644C696E65204172677320457863B2
:101BAA00656564656400434D443A207377697463DC
:101BBA0068203D3E20726967687400434D443A20AC
:101BCA00737769746368203D3E206C6566740043D0
:101BDA004D443A20737769746368203D3E207573DB
:101BEA00657200434D443A20737769746368202D07
:101BFA00204552524F5200434D443A206379636C58
:101C0A0065203D3E200068656C700068656C702038
:101C1A002D2074686973206D656E750020206D61D2
:101C2A00696E202020202020206163746976617407
:101C3A0065207C206465616374697661746500203F
:101C4A00207377697463682020202020726967688E
:101C5A0074207C206C656674207C20757365720024
:101C6A0020206379636C652020202020205B736527
:101C7A00636F6E64735D004552524F522C20496E59
:0C1C8A0076616C696420434D443A2000F0
:00000001FF
